:1000000045C0000058C0000056C0000054C00000A9
:1000100052C0000050C000004EC000004CC00000A4
:100020004AC0000048C0000046C0000044C00000B4
:1000300042C0000040C000003EC000003CC00000C4
:100040003AC0000038C0000036C0000034C00000D4
:1000500032C0000030C000002EC000002CC00000E4
:100060002AC0000028C0000026C0000024C00000F4
:1000700022C0000020C000001EC000001CC0000004
:100080001AC0000018C0000016C0000011241FBED6
:10009000CFEFD0E1DEBFCDBF11E0A0E0B1E0ECE9F1
:1000A000F1E000E00BBF02C007900D92A834B10749
:1000B000D9F702D071C0A4CF3FD001C08CB15F99F5
:1000C000FDCF80E091E053D04ED0813619F08236DA
:1000D00091F022C087E191E04AD001C08CB15F99D4
:1000E000FDCF2FEF83ED90E3215080409040E1F76A
:1000F00000C00000E9CF8FE291E039D001C08CB19F
:100100005F99FDCF2FEF83ED90E321508040904029
:10011000E1F700C00000D8CF8AE021D001C08CB147
:100120005F99FDCF2FEF83ED90E321508040904009
:10013000E1F700C00000C8CF1092900080E189B9BB
:100140008BB182608BB9E5E9F0E0808186608083C5
:100150008AB180618AB98AB188608AB908955D9B45
:10016000FECF8CB908955F9BFECF8CB108950F939D
:100170001F93CF93DF938C01C0E0D0E002C0EFDF8C
:100180002196F801EC0FFD1F80818111F8CFDF91DE
:0C019000CF911F910F910895F894FFCFBC
:10019C0073657269616C20EC97B0EAB2B020EC84A4
:1001AC00B1EAB3B50A0D0061746D6567613132381F
:1001BC00206120EC8898EC8BA0ED95A80A0D0061CD
:1001CC00746D656761313238206220EC8898EC8B55
:0801DC00A0ED95A80A0D00003A
:00000001FF
